:020000040800F2
:1000000000000120D9580008DD4B0008E34B000830
:10001000E94B0008EF4B0008F54B0008000000001A
:1000200000000000000000000000000071C2000895
:10003000FB4B00080000000051C4000899C40008F0
:1000400021590008215900082159000821590008A8
:100050002159000821590008215900082159000898
:100060002159000821590008215900082159000888
:100070002159000821590008215900082159000878
:100080002159000821590008215900082159000868
:100090002159000821590008215900082159000858
:1000A0002159000821590008215900082159000848
:1000B000094C00082159000821590008215900085D
:1000C0002159000821590008215900082159000828
:1000D0002159000821590008215900082159000818
:1000E0002159000821590008215900082159000808
:1000F00021590008215900081D4C00082159000809
:1001000021590008215900082159000821590008E7
:100110002159000821590008314C000821590008D4
:1001200021590008215900082159000821590008C7
:1001300000000000000000000000000000000000BF
:1001400000000000000000000000000000000000AF
:10015000000000000000000000000000000000009F
:10016000000000000000000000000000000000008F
:10017000000000000000000000000000000000007F
:10018000000000000000000000000000000000006F
:10019000000000000000000000000000000000005F
:1001A000000000000000000000000000000000004F
:1001B000000000000000000000000000000000003F
:1001C000000000000000000000000000000000002F
:1001D000000000000000000000000000000000001F
:0401E0005FF8E0F1F3
:1001F00010B5054C237833B9044B13B10448AFF361
:1002000000800123237010BD0802002000000000C0
:10021000BC12010808B5034B1BB103490348AFF3F7
:10022000008008BD000000000C020020BC12010884
:10023000034613F8012B002AFBD1181A0138704726
:1002400081F0004102E000BF83F0004330B54FEA87
:1002500041044FEA430594EA050F08BF90EA020FF4
:100260001FBF54EA000C55EA020C7FEA645C7FEA87
:10027000655C00F0E2804FEA5454D4EB5555B8BFAA
:100280006D420CDD2C4480EA020281EA030382EA1B
:10029000000083EA010180EA020281EA0303362DAD
:1002A00088BF30BD11F0004F4FEA01314FF4801C80
:1002B0004CEA113102D0404261EB410113F0004F92
:1002C0004FEA03334CEA133302D0524263EB430349
:1002D00094EA050F00F0A780A4F10104D5F1200EE7
:1002E0000DDB02FA0EFC22FA05F2801841F1000142
:1002F00003FA0EF2801843FA05F359410EE0A5F116
:1003000020050EF1200E012A03FA0EFC28BF4CF046
:10031000020C43FA05F3C01851EBE37101F00045FC
:1003200007D54FF0000EDCF1000C7EEB00006EEB09
:100330000101B1F5801F1BD3B1F5001F0CD3490893
:100340005FEA30004FEA3C0C04F101044FEA4452EA
:1003500012F5800F80F09A80BCF1004F08BF5FEA71
:10036000500C50F1000041EB045141EA050130BD51
:100370005FEA4C0C404141EB0101013C28BFB1F563
:10038000801FE9D291F0000F04BF01460020B1FAAE
:1003900081F308BF2033A3F10B03B3F120020CDA81
:1003A0000C3208DD02F1140CC2F10C0201FA0CF05F
:1003B00021FA02F10CE002F11402D8BFC2F1200CC4
:1003C00001FA02F120FA0CFCDCBF41EA0C0190407A
:1003D000E41AA2BF01EB0451294330BD6FEA0404C3
:1003E0001F3C1CDA0C340EDC04F11404C4F12002AE
:1003F00020FA04F001FA02F340EA030021FA04F3C0
:1004000045EA030130BDC4F10C04C4F1200220FA16
:1004100002F001FA04F340EA0300294630BD21FA54
:1004200004F0294630BD94F0000F83F4801306BF1A
:1004300081F480110134013D4EE77FEA645C18BF0E
:100440007FEA655C29D094EA050F08BF90EA020FA5
:1004500005D054EA000C04BF1946104630BD91EA9D
:10046000030F1EBF0021002030BD5FEA545C05D1A0
:100470004000494128BF41F0004130BD14F58004DF
:100480003CBF01F5801130BD01F0004545F0FE4153
:1004900041F470014FF0000030BD7FEA645C1ABF88
:1004A000194610467FEA655C1CBF0B46024650EABF
:1004B000013406BF52EA033591EA030F41F40021EB
:1004C00030BD00BF90F0000F04BF0021704730B571
:1004D0004FF4806404F132044FF000054FF0000146
:1004E00050E700BF90F0000F04BF0021704730B507
:1004F0004FF4806404F1320410F0004548BF4042DC
:100500004FF000013EE700BF42004FEAE2014FEA30
:1005100031014FEA02701FBF12F07F4393F07F4F0B
:1005200081F06051704732F07F4208BF704793F00E
:100530007F4F04BF41F40021704730B54FF4607421
:1005400001F0004521F000411CE700BF50EA010224
:1005500008BF704730B54FF000050AE050EA0102CD
:1005600008BF704730B511F0004502D5404261EB3D
:1005700041014FF4806404F132045FEA915C3FF47E
:10058000D8AE4FF003025FEADC0C18BF03325FEA1B
:10059000DC0C18BF033202EBDC02C2F1200300FACC
:1005A00003FC20FA02F001FA03FE40EA0E0021FAF1
:1005B00002F11444BDE600BF70B54FF0FF0C4CF4DF
:1005C000E06C1CEA11541DBF1CEA135594EA0C0F91
:1005D00095EA0C0F00F0DEF82C4481EA030621EACC
:1005E0004C5123EA4C5350EA013518BF52EA033507
:1005F00041F4801143F4801338D0A0FB02CE4FF0B9
:100600000005E1FB02E506F00042E0FB03E54FF0E8
:100610000006E1FB03569CF0000F18BF4EF0010EE0
:10062000A4F1FF04B6F5007F64F5407404D25FEADC
:100630004E0E6D4146EB060642EAC62141EA55518F
:100640004FEAC52040EA5E504FEACE2EB4F1FD0CD1
:1006500088BFBCF5E06F1ED8BEF1004F08BF5FEA4F
:10066000500E50F1000041EB045170BD06F0004601
:1006700046EA010140EA020081EA0301B4EB5C04AE
:10068000C2BFD4EB0C0541EA045170BD41F48011A6
:100690004FF0000E013C00F3AB8014F1360FDEBFCB
:1006A000002001F0004170BDC4F10004203C35DAA7
:1006B0000C341BDC04F11404C4F1200500FA05F32A
:1006C00020FA04F001FA05F240EA020001F00042CB
:1006D00021F0004110EBD37021FA04F642EB060141
:1006E0005EEA430E08BF20EAD37070BDC4F10C046B
:1006F000C4F1200500FA04F320FA05F001FA04F22F
:1007000040EA020001F0004110EBD37041F100011A
:100710005EEA430E08BF20EAD37070BDC4F1200525
:1007200000FA05F24EEA020E20FA04F301FA05F28D
:1007300043EA020321FA04F001F0004121FA04F235
:1007400020EA020000EBD3705EEA430E08BF20EA05
:10075000D37070BD94F0000F0FD101F0004640003F
:1007600041EB010111F4801F08BF013CF7D041EAC1
:10077000060195F0000F18BF704703F000465200C5
:1007800043EB030313F4801F08BF013DF7D043EA96
:100790000603704794EA0C0F0CEA135518BF95EA4C
:1007A0000C0F0CD050EA410618BF52EA4306D1D1D3
:1007B00081EA030101F000414FF0000070BD50EAF2
:1007C000410606BF1046194652EA430619D094EA7C
:1007D0000C0F02D150EA013613D195EA0C0F05D166
:1007E00052EA03361CBF104619460AD181EA0301BA
:1007F00001F0004141F0FE4141F470014FF0000072
:1008000070BD41F0FE4141F4780170BD70B54FF00C
:10081000FF0C4CF4E06C1CEA11541DBF1CEA13558C
:1008200094EA0C0F95EA0C0F00F0A7F8A4EB05046E
:1008300081EA030E52EA03354FEA013100F0888065
:100840004FEA03334FF0805545EA131343EA12632E
:100850004FEA022245EA111545EA10654FEA0026E3
:100860000EF000419D4208BF964244F1FD0404F59C
:10087000407402D25B084FEA3202B61A65EB0305F8
:100880005B084FEA32024FF480104FF4002CB6EBB5
:10089000020E75EB030E22BFB61A754640EA0C0035
:1008A0005B084FEA3202B6EB020E75EB030E22BF75
:1008B000B61A754640EA5C005B084FEA3202B6EBB6
:1008C000020E75EB030E22BFB61A754640EA9C0075
:1008D0005B084FEA3202B6EB020E75EB030E22BF45
:1008E000B61A754640EADC0055EA060E18D04FEA03
:1008F000051545EA16754FEA06164FEAC30343EAA3
:1009000052734FEAC2025FEA1C1CC0D111F4801F6F
:100910000BD141EA00014FF000004FF0004CB6E768
:1009200011F4801F04BF01430020B4F1FD0C88BF07
:10093000BCF5E06F3FF6AFAEB5EB030C04BFB6EB12
:10094000020C5FEA500C50F1000041EB045170BD05
:100950000EF0004E4EEA113114EB5C04C2BFD4EB32
:100960000C0541EA045170BD41F480114FF0000EB6
:10097000013C90E645EA060E8DE60CEA135594EA32
:100980000C0F08BF95EA0C0F3FF43BAF94EA0C0F35
:100990000AD150EA01347FF434AF95EA0C0F7FF4AA
:1009A00025AF104619462CE795EA0C0F06D152EAFE
:1009B00003353FF4FDAE1046194622E750EA4106E2
:1009C00018BF52EA43067FF4C5AE50EA41047FF4F3
:1009D0000DAF52EA43057FF4EBAE12E74FF0FF3C58
:1009E00006E000BF4FF0010C02E000BF4FF0010C29
:1009F0004DF804CD4FEA410C7FEA6C5C4FEA430CA2
:100A000018BF7FEA6C5C1BD001B050EA410C0CBFF0
:100A100052EA430C91EA030F02BF90EA020F002052
:100A2000704710F1000F91EA030F58BF994208BFB9
:100A300090422CBFD8176FEAE37040F00100704776
:100A40004FEA410C7FEA6C5C02D150EA013C07D1CD
:100A50004FEA430C7FEA6C5CD6D152EA033CD3D018
:100A60005DF8040B704700BF8446104662468C4612
:100A70001946634600E000BF01B5FFF7B7FF002845
:100A800048BF10F1000F01BD4DF808EDFFF7F4FF6E
:100A90000CBF012000205DF808FB00BF4DF808EDF9
:100AA000FFF7EAFF34BF012000205DF808FB00BF1C
:100AB0004DF808EDFFF7E0FF94BF012000205DF83E
:100AC00008FB00BF4DF808EDFFF7CEFF94BF0120F3
:100AD00000205DF808FB00BF4DF808EDFFF7C4FFEC
:100AE00034BF012000205DF808FB00BF4FEA410C35
:100AF0007FEA6C5C02D150EA013C0AD14FEA430C18
:100B00007FEA6C5C02D152EA033C02D14FF0000054
:100B100070474FF0010070474FEA410212F5001292
:100B200015D211D56FF47873B3EB625212D94FEA34
:100B3000C12343F0004343EA505311F0004F23FA1E
:100B400002F018BF404270474FF00000704750EA73
:100B5000013005D111F0004008BF6FF00040704730
:100B60004FF00000704700BF4FEA4102B2F1E0438E
:100B700024BFB3F5001CDCF1FE5C0DD901F0004C84
:100B80004FEAC0024CEA5070B2F1004F40EB8300D4
:100B900008BF20F00100704711F0804F21D113F100
:100BA0003872BCBF01F00040704741F480114FEA39
:100BB0005252C2F11802C2F1200C10FA0CF320FAC2
:100BC00002F018BF40F001004FEAC1234FEAD323DF
:100BD00003FA0CFC40EA0C0023FA02F34FEA430349
:100BE000CCE77FEA625307D150EA01331EBF4FF0D2
:100BF000FE4040F44000704701F0004040F0FE40ED
:100C000040F40000704700BF80F0004002E000BFE9
:100C100081F0004142001FBF5FEA410392EA030FE7
:100C20007FEA226C7FEA236C6AD04FEA1262D2EB31
:100C30001363C1BFD218414048404140B8BF5B4236
:100C4000192B88BF704710F0004F40F4000020F0CF
:100C50007F4018BF404211F0004F41F4000121F0E5
:100C60007F4118BF494292EA030F3FD0A2F101022F
:100C700041FA03FC10EB0C00C3F1200301FA03F16D
:100C800000F0004302D5494260EB4000B0F5000F90
:100C900013D3B0F1807F06D340084FEA310102F14F
:100CA0000102FE2A51D2B1F1004F40EBC25008BF01
:100CB00020F0010040EA03007047490040EB0000CB
:100CC000013A28BFB0F5000FEDD2B0FA80FCACF1CC
:100CD000080CB2EB0C0200FA0CF0AABF00EBC250F9
:100CE00052421843BCBFD0401843704792F0000FE7
:100CF00081F4000106BF80F400000132013BB5E73A
:100D00004FEA41037FEA226C18BF7FEA236C21D0AF
:100D100092EA030F04D092F0000F08BF0846704714
:100D200090EA010F1CBF0020704712F07F4F04D1E2
:100D3000400028BF40F00040704712F100723CBFF5
:100D400000F50000704700F0004343F0FE4040F41F
:100D5000000070477FEA226216BF08467FEA2363DD
:100D60000146420206BF5FEA412390EA010F40F4C8
:100D7000800070474FF0000304E000BF10F0004314
:100D800048BF40425FEA000C08BF704743F09643FB
:100D900001464FF000001CE050EA010208BF704716
:100DA0004FF000030AE000BF50EA010208BF70479D
:100DB00011F0004302D5404261EB41015FEA010CB2
:100DC00002BF84460146002043F0B64308BFA3F1AA
:100DD0008053A3F50003BCFA8CF2083AA3EBC2538C
:100DE00010DB01FA02FC634400FA02FCC2F12002AB
:100DF000BCF1004F20FA02F243EB020008BF20F0E2
:100E00000100704702F1200201FA02FCC2F1200247
:100E100050EA4C0021FA02F243EB020008BF20EA3C
:100E2000DC7070474FF0FF0C1CEAD0521EBF1CEA6A
:100E3000D15392EA0C0F93EA0C0F6FD01A4480EA58
:100E4000010C400218BF5FEA41211ED04FF0006341
:100E500043EA501043EA5111A0FB01310CF000406D
:100E6000B1F5000F3EBF490041EAD3715B0040EA93
:100E7000010062F17F02FD2A1DD8B3F1004F40EB63
:100E8000C25008BF20F00100704790F0000F0CF036
:100E9000004C08BF49024CEA502040EA51207F3AFA
:100EA000C2BFD2F1FF0340EAC250704740F40000D5
:100EB0004FF00003013A5DDC12F1190FDCBF00F0C6
:100EC00000407047C2F10002410021FA02F1C2F174
:100ED000200200FA02FC5FEA310040F1000053EA10
:100EE0004C0308BF20EADC70704792F0000F00F05E
:100EF000004C02BF400010F4000F013AF9D040EA64
:100F00000C0093F0000F01F0004C02BF490011F4F7
:100F1000000F013BF9D041EA0C018FE70CEAD153F5
:100F200092EA0C0F18BF93EA0C0F0AD030F0004C75
:100F300018BF31F0004CD8D180EA010000F0004029
:100F4000704790F0000F17BF90F0004F084691F0E7
:100F5000000F91F0004F14D092EA0C0F01D1420221
:100F60000FD193EA0C0F03D14B0218BF084608D1EA
:100F700080EA010000F0004040F0FE4040F4000034
:100F8000704740F0FE4040F4400070474FF0FF0CC7
:100F90001CEAD0521EBF1CEAD15392EA0C0F93EA0E
:100FA0000C0F69D0A2EB030280EA010C49024FEA60
:100FB000402037D04FF0805343EA111143EA101319
:100FC0000CF000408B4238BF5B0042F17D024FF4D1
:100FD000000C8B4224BF5B1A40EA0C00B3EB510FAC
:100FE00024BFA3EB510340EA5C00B3EB910F24BF95
:100FF000A3EB910340EA9C00B3EBD10F24BFA3EB1A
:10100000D10340EADC001B0118BF5FEA1C1CE0D1E1
:10101000FD2A3FF650AF8B4240EBC25008BF20F094
:10102000010070470CF0004C4CEA50207F32C2BFE8
:10103000D2F1FF0340EAC250704740F400004FF085
:101040000003013A37E792F0000F00F0004C02BFB6
:10105000400010F4000F013AF9D040EA0C0093F080
:10106000000F01F0004C02BF490011F4000F013BDA
:10107000F9D041EA0C0195E70CEAD15392EA0C0F42
:1010800008D142027FF47DAF93EA0C0F7FF470AF7A
:10109000084676E793EA0C0F04D14B023FF44CAFBD
:1010A00008466EE730F0004C18BF31F0004CCAD152
:1010B00030F000427FF45CAF31F000437FF43CAF8E
:1010C0005FE700BF4FF0FF3C06E000BF4FF0010CB0
:1010D00002E000BF4FF0010C4DF804CD4FEA400292
:1010E0004FEA41037FEA226C18BF7FEA236C11D0DC
:1010F00001B052EA530C18BF90EA010F58BFB2EB8F
:10110000030088BFC81738BF6FEAE17018BF40F00E
:10111000010070477FEA226C02D15FEA402C05D1C2
:101120007FEA236CE4D15FEA412CE1D05DF8040B47
:10113000704700BF844608466146FFE70FB5FFF7DA
:10114000C9FF002848BF10F1000F0FBD4DF808ED92
:10115000FFF7F4FF0CBF012000205DF808FB00BF83
:101160004DF808EDFFF7EAFF34BF012000205DF8DD
:1011700008FB00BF4DF808EDFFF7E0FF94BF01202A
:1011800000205DF808FB00BF4DF808EDFFF7D2FF27
:1011900094BF012000205DF808FB00BF4DF808ED6A
:1011A000FFF7C8FF34BF012000205DF808FB00BF37
:1011B0004FEA4002B2F1FE4F0FD34FF09E03B3EB64
:1011C00012620DD94FEA002343F0004310F0004FA4
:1011D00023FA02F018BF404270474FF000007047FA
:1011E00012F1610F01D1420205D110F0004008BF99
:1011F0006FF0004070474FF00000704780B584B03A
:1012000000AF3B1D00221A605A609A60184B194AC1
:101210001A60174B00229A60154B00221A73144B68
:1012200000221A75124B4FF46022DA61104B002233
:101230005A600F4B01221A610D4804F0C9FB0346A6
:10124000002B01D003F0FEFB0A237B600123BB606F
:101250000023FB603B1D1946054804F0A3FC034630
:10126000002B01D003F0EEFB00BF1037BD4680BD60
:10127000240200200024014080B588B000AF7860CF
:1012800007F1100300221A605A609A60DA607B68E6
:101290001B68144A934221D1134B9B69124A43F4B1
:1012A00000739361104B9B6903F40073FB60FB6850
:1012B0000D4B9B690C4A43F0100393610A4B9B69E9
:1012C00003F01003BB60BB6801233B6103237B6118
:1012D00007F110031946054804F07EFE00BF2037D1
:1012E000BD4680BD002401400010024000100140B6
:1012F00080B582B000AF786003F050FC00BF0837C3
:10130000BD4680BD80B582B000AF786003F056FC6A
:1013100000BF0837BD4680BD80B500AF344A00210C
:10132000344808F02FFC0346334A1360334A002147
:10133000334808F027FC0346324A1360324A002142
:10134000324808F01FFC0346314A1360314A00213D
:10135000314808F017FC0346304A1360304A002138
:10136000304808F00FFC03462F4A13602F4A002133
:101370002F4808F007FC03462E4A13602E4A00212E
:101380002E4808F0FFFB03462D4A13602D4A00212A
:101390002D4808F0F7FB03462C4A13602C4A002125
:1013A0002C4808F0EFFB03462B4A13602B4A002120
:1013B0002B4808F0E7FB03462A4A13602A4A00211B
:1013C0002A4808F0DFFB0346294A1360294A002116
:1013D000294808F0D7FB0346284A1360284A002111
:1013E000284808F0CFFB0346274A136000BF80BDA2
:1013F000CC1401088D1400089C020020F014010890
:10140000B1150008A00200201415010845160008B7
:10141000A402002038150108BD180008A802002009
:101420005C150108391B0008AC020020801501087A
:10143000E91B0008B0020020A4150108951C000853
:10144000B4020020C8150108491D0008B802002098
:10145000EC150108CD1F0008BC0200201016010881
:10146000E9220008C0020020341601089523000874
:10147000C402002058160108C5230008C802002035
:101480007C160108F9230008CC02002080B584B046
:1014900000AF78600023FB8101F084FD40F6B83096
:1014A00004F072FA374806F0B3FC374806F0B0FC97
:1014B000364806F0ADFC364806F0AAFC002131485B
:1014C00006F0AEFD04212F4806F0AAFD04212E48A7
:1014D00006F0A6FD01F00EF801F08AF801212D4872
:1014E00004F00EFF0346012B18D12B4B01221A707A
:1014F0002A4B18680023022200210AF0B3F9284B76
:1015000018680023022200210AF0ACF9254B186864
:101510000023022200210AF0A5F91DE001211D4847
:1015200004F0EEFE0346002B16D11B4B02221A706C
:101530000821144806F074FD02F082FE1A4B186868
:101540000023022200210AF08DF9184B18680023AD
:10155000022200210AF086F941F2CE33FB81094BC9
:101560001B68FA895A634FF49453FB81054B1B683F
:10157000FA899A634FF47A7008F0AEFB002002F00B
:10158000B1FFF7E7E4040020540400200C0400201D
:101590002C050020001C014054020020A002002065
:1015A000A8020020AC020020BC020020B8020020EB
:1015B00080B58AB000AF78604FF0FF3101200AF0AB
:1015C00005F91E4B18680023022200210AF04AF98F
:1015D00000233B6107F1140300221A605A609A60ED
:1015E000DA600023FB600023BB6002F057FA034679
:1015F000012B1CD107F110010A231422104808F016
:10160000E0F8034687F8273097F82730002B0ED1F3
:1016100007F10C0207F1080107F11003184602F068
:101620006AFFFB68BA681146184602F0ADF814204C
:1016300008F052FB012002F055FFD6E7A40200207B
:101640007405002080B594B000AF78604FF0FF3192
:1016500001200AF0BBF83C218D4806F0A1FF3C2197
:101660008C4806F09DFF8C4BFB638C4BBB638C4B13
:101670007B638C4BBB628B4BFB628A4B3B634FF0B3
:1016800000037B62844B3B62844BFB61844BBB61F8
:10169000844BFB60834B3B61824B7B614FF00003CB
:1016A000BB600023A7F84E300023A7F84C3009F0A8
:1016B0003DFC7864764B1B685B6AA7F84E30754B2F
:1016C0001B685B6AA7F84C30714B1B6800225A629A
:1016D000704B1B6800225A6209F028FC02467B6CA2
:1016E000D31A142B05D909F021FC02467B6CD31ABE
:1016F00000E014237B64664B1B681B6803F0100337
:10170000102B0AD1B7F84E3047F23052934204D929
:10171000B7F84E30DB43A7F84E3007F12401B7F895
:101720004E307A6C184601F025FD5A4B1B681B6839
:1017300003F01003102B0AD1B7F84C3047F23052A7
:10174000934204D9B7F84C30DB43A7F84C3007F18B
:101750000801B7F84C307A6C184601F00BFD09F01F
:10176000E5FB786402F082F90346012B0BD14E4B66
:101770001B6807F124010122184601F061FC0346B1
:10178000A7F84A3002E00023A7F84A3002F07AF9BD
:101790000346012B0BD1454B1B6807F108010222C0
:1017A000184601F04DFC0346A7F8483002E000233C
:1017B000A7F84830B7F94A3041F668229342A8BFEB
:1017C0001346A7F84A30B7F9483041F6AB029342C6
:1017D000A8BF1346A7F84830B7F94A30344A9342B5
:1017E000B8BF1346A7F84A30B7F94830314A934298
:1017F000B8BF1346A7F848302F4B1B685B6B9AB2F3
:10180000B7F84A3013449BB2A7F842302A4B1B6802
:101810009B6B9AB2B7F8483013449BB2A7F840309C
:10182000B7F94230012BB8BF0123A7F84230B7F90E
:101830004030012BB8BF0123A7F84030B7F9423040
:1018400044F61F62934205DCB7F842201A4B1B682E
:101850005A6304E0184B1B6844F620625A63B7F9D8
:10186000403044F61F62934205DCB7F84020124B2B
:101870001B689A6304E0104B1B6844F620629A636D
:101880000F2008F029FA022002F02CFE12E700BF18
:10189000C40300209C0400209A99993E9A99193F0C
:1018A00000002041CDCC4C3E200000202400002030
:1018B00098E5FFFF55E7FFFFE404002090B599B0DD
:1018C00004AF78604FF0FF31012009F07FFF07F18E
:1018D000240300221A605A609A604FF00003FB60F4
:1018E0004FF000033B614FF000037B61814B3B6293
:1018F000814BFB61814BBB6109F018FBF86407F178
:10190000380407F1400207F1440107F1480007F1EC
:101910003C03029307F13003019307F13403009372
:10192000234601F009F8FA6B07F124030321184656
:1019300002F0C0FC09F0FAFA0246FB6CD31A052B40
:1019400005D909F0F3FA0246FB6CD31A00E005232F
:10195000FB647C6C07F124030321184602F07EFC33
:101960000346FA6C1946204601F076FC09F0DEFACF
:10197000F86401F049FF0346013B0D2B00F2B180F2
:1019800001A252F823F000BFC1190008D5190008C0
:10199000EF190008011A00081B1A00082F1A000886
:1019A000491A00085B1A0008751A0008871A00080F
:1019B0009B1A0008AD1A0008C11A0008DD1A0008B9
:1019C00001F0E8FA07F1080319464FF0000001F0B2
:1019D000BBFC88E001F0DEFA494B4FF000021A60D0
:1019E000484B494A1A60494B494A1A607BE001F06A
:1019F000D1FA07F108031946464801F0A5FC72E048
:101A000001F0C8FA3E4B4FF000021A603D4B424ACB
:101A10001A603E4B414A1A6065E001F0BBFA07F1DB
:101A2000080319464FF0000001F08EFC5BE001F066
:101A3000B1FA334B4FF000021A60324B324A1A604F
:101A4000324B334A1A604EE001F0A4FA07F1080362
:101A50001946304801F078FC45E001F09BFA284B2C
:101A60004FF000021A60274B2D4A1A60274B2D4A6F
:101A70001A6038E001F08EFA07F1080319462A4887
:101A800001F062FC2FE001F0A7FA204B274A1A6010
:101A90001E4B1B681B4A136025E001F07BFA07F11F
:101AA00008031946224801F04FFC1CE001F0AEFA91
:101AB000164B1E4A1A60154B1B68124A136012E03F
:101AC0000F4B4FF000021A6001F064FA07F10803AF
:101AD00019464FF0000001F037FC04E001F062FA13
:101AE00001E001F057FA0F2008F0F6F8032002F0A9
:101AF000F9FC04E79A99993F9A99993E48E1EA409E
:101B000098020020200000203D0AD73E240000203B
:101B1000EC51383E9A993543B76D5B3E587CC53ED3
:101B20008FC2753EEC51B83ECDCC4C3FCDCC4C3E37
:101B30000000B4C20000000080B584B000AF78603F
:101B40004FF0FF31012009F041FE0421224806F048
:101B500071FB0023FB604FF00003BB604FF0FF31CF
:101B6000012009F033FE1C4B1B689B6BFB60F8687F
:101B7000FFF700F903461846FEF7C6FC14A3D3E9A5
:101B80000023FEF719FD02460B46104619464FF09A
:101B90000002124BFEF710FD02460B461046194696
:101BA000FEF7E2FF0346BB604FF08041B868FFF7E5
:101BB000F5FA0346002B04D0BA680521084802F064
:101BC00079FB042002F08EFCC8E700BFAFF3008071
:101BD000FCA9F1D24D62503F0C040020004065404A
:101BE000000000200000000080B584B000AF7860E5
:101BF0004FF0FF31012009F0E9FD0421224806F0F1
:101C000019FB0023FB604FF00003BB604FF0FF3176
:101C1000012009F0DBFD1C4B1B689B6BFB60F86827
:101C2000FFF7A8F803461846FEF76EFC14A3D3E9A5
:101C30000023FEF7C1FC02460B46104619464FF042
:101C40000002124BFEF7B8FC02460B46104619463E
:101C5000FEF78AFF0346BB604FF08041B868FFF78C
:101C60009DFA0346002B04D0BA680321084802F00D
:101C700021FB052002F036FCC8E700BFAFF300806F
:101C8000FCA9F1D24D62503F2C0500200040654078
:101C90001400002080B584B000AF78604FF0FF31B1
:101CA000012009F093FD0023FB7300233B810023F7
:101CB000BB7300237B7300233B7301F073F907F1BF
:101CC00008014FF0FF3301221C4807F07AFDFB7B2F
:101CD0000133FB733B7A012B03D1BB7B0133BB7315
:101CE0000CE03B7A022B03D17B7B01337B7305E055
:101CF0003B7A032B02D13B7B01333B73FB7B062BEF
:101D000013D93A7B797BBB7B184601F0F3FE03467F
:101D10001A460B4B1A700B4B01221A7001F03AF95C
:101D20004FF0FF31012009F051FD00233B720F20DD
:101D300007F0D2FF062002F0D5FBBEE774050020B5
:101D4000920200209502002080B594B000AF786028
:101D50004FF0FF31012009F039FD8F4B1868002347
:101D60000222002109F07EFD8C4B1868002302221C
:101D7000002109F077FD3C21894806F011FC3C2147
:101D8000884806F00DFC884BFB63884BBB63884B8F
:101D90007B63884BBB62874BFB62864B3B634FF098
:101DA00000037B62804B3B62804BFB61804BBB61DD
:101DB000804BFB607F4B3B617E4B7B614FF00003B0
:101DC000BB600023A7F84E300023A7F84C3009F081
:101DD000ADF87864724B1B685B6AA7F84E30714BA4
:101DE0001B685B6AA7F84C306D4B1B6800225A6277
:101DF0006C4B1B6800225A6209F098F802467B6C13
:101E0000D31A142B05D909F091F802467B6CD31A2A
:101E100000E014237B64624B1B681B6803F0100313
:101E2000102B0AD1B7F84E3047F23052934204D902
:101E3000B7F84E30DB43A7F84E3007F12401B7F86E
:101E40004E307A6C184601F095F9564B1B681B68AA
:101E500003F01003102B0AD1B7F84C3047F2305280
:101E6000934204D9B7F84C30DB43A7F84C3007F164
:101E70000801B7F84C307A6C184601F07BF909F08C
:101E800055F8786402F056F90346012B0BD14A4B02
:101E90001B6807F124010122184601F0D1F803461E
:101EA000A7F84A3002E00023A7F84A3002F07EF992
:101EB0000346012B0BD1414B1B6807F1080102229D
:101EC000184601F0BDF80346A7F8483002E00023A9
:101ED000A7F84830B7F94A30394A9342B8BF134699
:101EE000A7F84A30B7F94830364A9342B8BF13468C
:101EF000A7F84830B7F94A3040F634529342A8BFA9
:101F00001346A7F84A30B7F9483040F65542934295
:101F1000A8BF1346A7F848302B4B1B685B6B9AB2DF
:101F2000B7F84A3013449BB2A7F84230264B1B68DF
:101F30009B6B9AB2B7F8483013449BB2A7F8403075
:101F4000B7F94230012BB8BF0123A7F84230B7F9E7
:101F50004030012BB8BF0123A7F84030B7F9423019
:101F600044F61F62934204DCB7F84220164B1B680C
:101F70005A63B7F9403044F61F62934204DCB7F865
:101F80004020114B1B689A630F2007F0A5FE072025
:101F900002F0A8FA1EE700BFC0020020CC02002019
:101FA000C40300209C0400209A99993E9A99193FF5
:101FB00000002041CDCC4C3E200000202400002019
:101FC000CCF2FFFFABF3FFFFE404002090B59BB021
:101FD00004AF78604FF0FF31012009F0F7FB4FF0BC
:101FE0000003BB634FF00003FB634FF000033B644F
:101FF000AD4BFB64AD4BBB64AD4B7B6407F10C0395
:1020000000221A605A609A6008F090FF78650023F9
:1020100087F8533007F1200407F1280207F12C015B
:1020200007F1300007F12403029307F1180301932D
:1020300007F11C030093234600F07EFC7A6A07F147
:102040000C030321184602F035F908F06FFF024631
:102050007B6DD31A052B05D908F068FF02467B6D0E
:10206000D31A00E005237B65FC6A07F10C0303210A
:10207000184602F0F3F803467A6D1946204601F03F
:10208000EBF808F053FF786501F058FD0346152B77
:1020900000F2028101A252F823F000BFF5200008EF
:1020A000092100082B2100083F21000851210008C8
:1020B000572100089F210008C9210008DB210008E2
:1020C000E1210008F3210008F92100080B22000893
:1020D0001122000823220008292200083B220008C0
:1020E0004F22000855220008672200087B220008C2
:1020F0008D22000800F04EFF07F1340319464FF01F
:10210000000001F021F9C7E097F85330002B06D109
:10211000684B186800230222002109F0A3FB012369
:1021200087F8533000F03EFFB6E000F033FF07F1D0
:10213000340319464FF0000001F006F9ACE000F05E
:1021400001FF07F1340319465B4801F0FDF8A3E0F5
:1021500000F05CFFA0E000F01DFF584B1B78032B44
:1021600007D0032B00F39580012B09D0022B0ED052
:102170008FE007F134031946514801F0E5F80DE00E
:1021800007F1340319464F4801F0DEF806E007F185
:10219000340319464C4801F0D7F87AE079E0474B10
:1021A0001B78032B06D0032B75DC012B05D0022BEB
:1021B00006D070E000F02AFF05E000F0F3FE02E038
:1021C00000F00AFF67E066E000F0E4FE07F1340388
:1021D00019463E4801F0B8F85EE000F0FDFE5BE015
:1021E00000F0D8FE07F134031946394801F0ACF885
:1021F00052E000F00BFF4FE000F0CCFE07F134039B
:102200001946344801F0A0F846E000F0E5FE43E04E
:1022100000F0C0FE07F1340319462D4801F094F890
:102220003AE000F0F3FE37E000F0B4FE07F13403CB
:102230001946244801F088F82EE000F0B3FE264B42
:10224000186800230222002109F00CFB24E000F0B2
:10225000DDFE21E000F09EFE07F1340319461F4821
:1022600001F072F818E01E4B1868002302220021CA
:1022700009F0F8FA00F096FE0EE000F08BFE07F190
:1022800034031946154801F05FF805E000F08AFEB6
:1022900002E000BF00E000BF0F2007F01DFD082096
:1022A00002F020F9B6E600BF9A99993F9A99993EB3
:1022B00048E1EA40B40200200000344392020020CA
:1022C000000034420000B442000007439A99B5422E
:1022D000CDCC4C3F3333B742C402002033333743B5
:1022E000C80200200000000080B584B000AF786014
:1022F0004FF0FF31012009F069FA0421224805F06E
:1023000099FF0023FB604FF00003BB604FF0FF31EB
:10231000012009F05BFA1C4B1B689B6BFB60F868A3
:10232000FEF728FD03461846FEF7EEF814A3D3E99E
:102330000023FEF741F902460B46104619464FF0BE
:102340000002124BFEF738F902460B4610461946BA
:10235000FEF70AFC0346BB604FF08041B868FEF709
:102360001DFF0346002B04D0BA680521084801F080
:10237000A1FF092002F0B6F8C8E700BFAFF3008064
:10238000FCA9F1D24D62503F0C0400200040654092
:102390000000002080B582B000AF78604FF0FF31C0
:1023A000012009F013FA01F03DFF4FF47A7007F0B5
:1023B00093FC034B01221A700A2002F093F8EDE718
:1023C0009302002080B582B000AF78604FF0FF31FB
:1023D000012009F0FBF901F099FF4FF47A7007F042
:1023E0007BFC034B01221A700B2002F07BF8EDE717
:1023F000940200200000000080B584B000AF786037
:102400004FF0FF31012009F0E1F90421224805F0E5
:1024100011FF0023FB604FF00003BB604FF0FF3162
:10242000012009F0D3F91C4B1B689B6BFB60F8681B
:10243000FEF7A0FC03461846FEF766F814A3D3E99E
:102440000023FEF7B9F802460B46104619464FF036
:102450000002124BFEF7B0F802460B461046194632
:10246000FEF782FB0346BB604FF08041B868FEF781
:1024700095FE0346002B04D0BA680321084801F0FA
:1024800019FF0C2002F02EF8C8E700BFAFF3008060
:10249000FCA9F1D24D62503F2C0500200040654060
:1024A0001400002080B586B004AF03460A46FB80C6
:1024B00013467B71FA884FF0FF3302930123019397
:1024C0007B1D00930123D021094804F08DF8FA8880
:1024D0004FF0FF330293012301937B1D00930123EF
:1024E000D221034804F080F800BF0837BD4680BD04
:1024F000D002002080B500AF81216B20FFF7D2FF12
:10250000642003F041FA00216B20FFF7CBFF00218C
:102510001B20FFF7C7FF00211C20FFF7C3FF00218E
:102520002320FFF7BFFF18211920FFF7BBFF04216D
:102530001A20FFF7B7FF00213820FFF7B3FF002173
:102540006C20FFF7AFFF642003F01EFA00BF80BDD0
:1025500080B588B004AFB9607A601A460346FB8143
:102560001346BB81FA894FF0FF330293BB89019375
:10257000BB6800930123D021094804F02FF9FA89A0
:102580004FF0FF330293BB8901937B6800930123D3
:10259000D221034804F022F900BF1037BD4680BDA8
:1025A000D002002080B586B000AF0346B9607A60E3
:1025B000FB8107F1100207F11401F8890223FFF7EC
:1025C000C7FF3B7D1B021AB27B7D1BB213431AB2BD
:1025D000BB681A803B7C1B021AB27B7C1BB2134384
:1025E0001AB27B681A8000BF1837BD4680BD000054
:1025F00080B586B000AF07F10A0207F1160319464D
:102600003B20FFF7CFFF07F1080207F1140319463B
:102610003D20FFF7C7FFBA1D07F1120319463F20FF
:10262000FFF7C0FF3A1D07F1100319464320FFF7DB
:10263000B9FFBA1C07F10E0319464520FFF7B2FF98
:102640003A4607F10C0319464720FFF7ABFFB7F9ED
:1026500016301846FEF792FB03464FF08D411846A0
:10266000FEF794FC03461846FDF74EFFA2A3D3E9FC
:102670000023FDF7A1FF02460B4610461946FEF760
:1026800073FA0346A04A1360B7F914301846FEF7F0
:1026900075FB03464FF08D411846FEF777FC034665
:1026A0001846FDF731FF94A3D3E90023FDF784FF1B
:1026B00002460B4610461946FEF756FA0346934A61
:1026C0001360B7F912301846FEF758FB03464FF077
:1026D0008D411846FEF75AFC03461846FDF714FFD5
:1026E00085A3D3E90023FDF767FF02460B4610469A
:1026F000194681A3D3E90023FDF7A6FD02460B4648
:1027000010461946FEF730FA0346814A1360B7F9BE
:1027100010301846FEF732FB03461846FDF7F4FE6C
:1027200077A3D3E90023FEF771F802460B46104663
:102730001946FEF719FA0346764A1360B7F90E30C8
:102740001846FEF71BFB03461846FDF7DDFE6CA39B
:10275000D3E90023FEF75AF802460B461046194605
:10276000FEF702FA03466C4A1360B7F90C301846BC
:10277000FEF704FB03461846FDF7C6FE60A3D3E947
:102780000023FEF743F802460B4610461946FEF7B3
:10279000EBF90346614A1360B7F90A305B42184609
:1027A000FEF7ECFA03464FF08D411846FEF7EEFBBC
:1027B00003461846FDF7A8FE4FA3D3E90023FDF713
:1027C000FBFE02460B4610461946FEF7CDF90346BE
:1027D000534A1360B7F908305B421846FEF7CEFA49
:1027E00003464FF08D411846FEF7D0FB03461846CE
:1027F000FDF78AFE40A3D3E90023FDF7DDFE024684
:102800000B4610461946FEF7AFF90346454A1360DA
:10281000B7F906305B421846FEF7B0FA03464FF0B0
:102820008D411846FEF7B2FB03461846FDF76CFED5
:1028300031A3D3E90023FDF7BFFE02460B46104645
:1028400019462DA3D3E90023FDF700FD02460B46F0
:1028500010461946FEF788F90346334A1360B7F964
:1028600004305B421846FEF789FA03461846FDF726
:102870004BFE23A3D3E90023FDF7C8FF02460B4616
:1028800010461946FEF770F90346284A1360B7F957
:1028900002305B421846FEF771FA03461846FDF710
:1028A00033FE17A3D3E90023FDF7B0FF02460B4622
:1028B00010461946FEF758F903461D4A1360B7F94A
:1028C00000305B421846FEF759FA03461846FDF7FA
:1028D0001BFE0BA3D3E90023FDF798FF02460B462E
:1028E00010461946FEF740F90346124A136000BF2E
:1028F0001837BD4680BD00BF8FC2F5285C8F2340CE
:102900000AD7A3703D626040580200205C0200209C
:102910006002002064020020680200206C02002097
:102920007002002074020020780200207C02002047
:102930008002002084020020B0B58CB000AFF860A7
:10294000B9607A603B6007F1200207F12E03194657
:102950004120FFF727FE07F11E0207F12C0319465D
:102960003B20FFF71FFE07F11C0207F12A0319465F
:102970003D20FFF717FE07F11A0207F12803194659
:102980003F20FFF70FFE07F1180207F12603194653
:102990004320FFF707FE07F1160207F1240319464B
:1029A0004520FFF7FFFD07F1140207F12203194646
:1029B0004720FFF7F7FDB7F92E301846FEF7DEF98E
:1029C0000346D5491846FEF7E1FA03461846FDF7D7
:1029D0009BFDCBA3D3E90023FDF738FC02460B4651
:1029E00014461D46B7F920301846FEF7C7F90346CE
:1029F000C9491846FEF7CAFA03461846FDF784FD92
:102A000002460B4620462946FDF71EFC02460B46B1
:102A100010461946BAA3D3E90023FDF717FC024676
:102A20000B46104619464FF000024FF08043FDF769
:102A3000EDFE02460B4610461946FEF795F8024693
:102A4000FB681A60B7F92C301846FEF797F9034671
:102A50004FF08D411846FEF799FA03461846FDF7E8
:102A600053FDA9A3D3E90023FDF7A6FD02460B46BB
:102A700014461D46A94B1B681846FDF745FD024646
:102A80000B4620462946FDF7DFFB02460B4614465F
:102A90001D46B7F91E301846FEF770F903464FF091
:102AA0008D411846FEF772FA03461846FDF72CFDD5
:102AB00095A3D3E90023FDF77FFD02460B46204690
:102AC0002946FDF7C1FB02460B4614461D46944BB2
:102AD0001B681846FDF718FD02460B46204629469E
:102AE000FDF7B2FB02460B46104619464FF00002B6
:102AF0004FF08043FDF78AFE02460B46104619460A
:102B0000FEF732F80246BB681A60B7F92A30184659
:102B1000FEF734F903464FF08D411846FEF736FABA
:102B200003461846FDF7F0FC77A3D3E90023FDF731
:102B300043FD02460B4614461D467A4B1B68184659
:102B4000FDF7E2FC02460B4620462946FDF77CFBDA
:102B500002460B4614461D46B7F91C301846FEF7D0
:102B60000DF903464FF08D411846FEF70FFA034664
:102B70001846FDF7C9FC64A3D3E90023FDF71CFD4B
:102B800002460B4620462946FDF75EFB02460B46F1
:102B900014461D46644B1B681846FDF7B5FC0246FB
:102BA0000B4620462946FDF74FFB02460B461046D2
:102BB00019464FF000024FF08043FDF727FE024612
:102BC0000B4610461946FDF7CFFF02467B681A6098
:102BD000B7F928301846FEF7D1F803464FF08D417B
:102BE0001846FEF7D3F903461846FDF78DFC46A3B9
:102BF000D3E90023FDF7E0FC02460B4614461D46D0
:102C00004A4B1B681846FDF77FFC02460B462046E0
:102C10002946FDF719FB02460B4614461D46B7F937
:102C20001A301846FEF7AAF803464FF08D411846B1
:102C3000FEF7ACF903461846FDF766FC32A3D3E96C
:102C40000023FDF7B9FC02460B4620462946FDF756
:102C5000FBFA02460B4614461D46354B1B681846C8
:102C6000FDF752FC02460B4620462946FDF7ECFADA
:102C700002460B46104619464FF000024FF08043C3
:102C8000FDF7C4FD02460B4610461946FDF76CFFE2
:102C900002463B681A60B7F926301846FEF76EF810
:102CA00003461846FDF730FC19A3D3E90023FDF7CE
:102CB000ADFD02460B4614461D461E4B1B681846CA
:102CC000FDF722FC02460B4620462946FDF7BCFADA
:102CD00002460B4614461D46B7F918301846FEF753
:102CE0004DF803461846FDF70FFC09A3D3E900236E
:102CF000FDF78CFD02460B46204629461CE000BF2E
:102D0000A4703D0AD74342408FC2F5285C8F234010
:102D10000AD7A3703D6260400000AA435802002019
:102D2000700200205C02002074020020600200207B
:102D30007802002064020020FDF786FA02460B4666
:102D400014461D466A4B1B681846FDF7DDFB02461C
:102D50000B4620462946FDF777FA02460B461046F9
:102D600019464FF000024FF08043FDF74FFD024639
:102D70000B4610461946FDF7F7FE02463B6C1A60FB
:102D8000B7F924301846FDF7F9FF03461846FDF75A
:102D9000BBFB55A3D3E90023FDF738FD02460B46E4
:102DA00014461D46534B1B681846FDF7ADFB024603
:102DB0000B4620462946FDF747FA02460B461446C5
:102DC0001D46B7F916301846FDF7D8FF03461846DA
:102DD000FDF79AFB44A3D3E90023FDF717FD024654
:102DE0000B4620462946FDF72FFA02460B461446AD
:102DF0001D46414B1B681846FDF786FB02460B46F5
:102E000020462946FDF720FA02460B461046194691
:102E10004FF000024FF08043FDF7F8FC02460B46EE
:102E200010461946FDF7A0FE02467B6C1A60B7F902
:102E300022301846FDF7A2FF03461846FDF764FB53
:102E400029A3D3E90023FDF7E1FC02460B46144613
:102E50001D462A4B1B681846FDF756FB02460B46DB
:102E600020462946FDF7F0F902460B4614461D465A
:102E7000B7F914301846FDF781FF03461846FDF7F1
:102E800043FB19A3D3E90023FDF7C0FC02460B4620
:102E900020462946FDF7D8F902460B4614461D4642
:102EA000174B1B681846FDF72FFB02460B462046C2
:102EB0002946FDF7C9F902460B46104619464FF060
:102EC00000024FF08043FDF7A1FC02460B4610467E
:102ED0001946FDF749FE0246BB6C1A6000BF303749
:102EE000BD46B0BDAFF300800AD7A3703D6260401D
:102EF0007C02002068020020800200206C0200207A
:102F00008402002080B500AF00220821044803F0AD
:102F10000EFA01221021024803F009FA00BF80BD19
:102F2000001C014080B500AF00220221044803F0DC
:102F3000FEF901220421024803F0F9F900BF80BD27
:102F4000001C014080B500AFFFF7DCFFFFF7EAFF90
:102F500000BF80BD80B500AF01220821044803F006
:102F6000E6F900221021024803F0E1F900BF80BD1C
:102F7000001C014080B500AF01220221044803F08B
:102F8000D6F900220421024803F0D1F900BF80BD28
:102F9000001C014080B500AFFFF7DCFFFFF7EAFF40
:102FA00000BF80BD80B500AF00220821094803F0B2
:102FB000BEF900221021074803F0B9F900220221CE
:102FC000044803F0B4F900220421024803F0AFF9E9
:102FD00000BF80BD001C014080B500AF0022082169
:102FE000094803F0A4F901221021074803F09FF9D2
:102FF00001220221044803F09AF900220421024828
:1030000003F095F900BF80BD001C014080B500AF02
:1030100001220821094803F08AF9002210210748FB
:1030200003F085F900220221044803F080F901220F
:103030000421024803F07BF900BF80BD001C014061
:10304000F0B587B000AFF860B9601346FB71BB689C
:103050009A68BB68DA60BB685A68BB689A60BB68EC
:103060001B681946F868FDF7D3FD03461A46BB688E
:103070005A60BB681C69BB685A68BB689B68194684
:103080001046FDF7C5FD034619462046FDF7CAFE6A
:1030900003461C46BB685A69BB685B681946104604
:1030A000FDF7C0FE034619462046FDF7B3FD034673
:1030B0001E46BB689C69BB685D68BB689B68194617
:1030C0001846FDF7A7FD034619462846FDF7A0FD63
:1030D00003461A46BB68DB6819461046FDF79AFDA1
:1030E000034619462046FDF79DFE03461946304625
:1030F000FDF790FD03467B61FB791946786900F086
:1031000009F803467B82B7F9123018461C37BD46D2
:10311000F0BD000080B584B000AF78600B46FB7056
:1031200000237B81104BFB60FB78012B02D10E4BFF
:10313000FB6004E0FB78022B01D10C4BFB60F968CB
:103140007868FDF723FF034609491846FDF76AFE34
:1031500003461846FEF72CF803467B81B7F90A3080
:1031600018461037BD4680BD8FC2353F5C8F423F49
:1031700000409C4690B587B000AF0346B9607A60C6
:10318000FB814FF000037B61FB891846FDF7F2FDE0
:1031900004467868FDF7EEFD034619462046FDF724
:1031A000F5FE034611491846FDF73CFE034610495B
:1031B0001846FDF7EBFE03461846FDF7A5F94FF05C
:1031C00033320C4BFDF722FB02460B4610461946E4
:1031D000FDF7CAFC03467B61786900F00DF80246F2
:1031E000BB681A6000BF1C37BD4690BD00007A4422
:1031F0000000C3443333F33F80B584B000AF786040
:103200004FF00003FB6012497868FDF70BFE0346A0
:1032100019461846FDF7FEFC03461846FDF774F9FB
:1032200009A3D3E90023FDF7C7F902460B46104670
:103230001946FDF799FC0346FB60FB6818461037FA
:10324000BD4680BDAFF300806F1283C0CA21094024
:103250000AD7A33C0000000080B586B000AFF8603C
:10326000B9607A607868FDF785FD03467B614FF0B1
:103270000001B868FDF77EFF0346002B0FD0B86849
:10328000FDF742F926A3D3E90023FDF707FC034627
:10329000002B01D0BB6811E04FF000030EE0B868CE
:1032A000FDF732F920A3D3E90023FDF715FC03460F
:1032B000002B01D0BB6801E04FF00003BB607969CF
:1032C000B868FDF7AFFD03461B491846FDF75EFEE3
:1032D00003461846FDF718F915A3D3E90023FDF7B7
:1032E0006BF902460B4610461946FDF73DFC0346B6
:1032F0003B61124B1B6839691846FDF78BFC03468E
:103300001A460E4B1A600E4B1A687B6813440C4A1F
:10331000136000BF1837BD4680BD00BFAFF300800B
:10332000333333333333D3BF333333333333D33F95
:1033300052B81E85EB51F03F00007A44880200200D
:103340008C02002000000000B0B58AB000AF7860A9
:1033500039604FF000037B62954B1B687968184613
:10336000FDF756FC03463B629249386AFDF7F8FECA
:103370000346002B06D19049386AFDF70FFF03463C
:10338000002B04D08A4B1B6883F000433B623968F2
:10339000386A00F021F9B8610321884800F05EFF27
:1033A000F861874B1B78022B31D18649F869FDF70C
:1033B000D7FE0346002B27D0F9698248FDF728FC89
:1033C00003461846FDF7A0F802460B46104619467C
:1033D0000CF05EFB70A3D3E90023FDF7EDF8024685
:1033E0000B461046194602460B46FCF72FFF0246D5
:1033F0000B4610461946FDF7B7FB03467B627B6A16
:1034000083F000437B6204E06E4BFB6101E06D4B97
:10341000FB616C49F869FDF7B9FD0346B9691846C7
:10342000FDF700FD03461846FDF76EF85CA3D3E9EF
:103430000023FCF70BFF02460B4614461D46F969B4
:103440006048FDF7E5FB03465E491846FDF79EFD23
:103450000346796A1846FDF7E5FC03461846FDF772
:1034600053F802460B4620462946FCF7EFFE02467B
:103470000B4610461946FDF777FB03467B61514921
:10348000F869FDF783FD0346B9691846FDF7CAFCE4
:1034900003461846FDF738F802460B4640A1D1E92D
:1034A0000001FCF7D1FE02460B4614461D46F969A1
:1034B0004448FDF7ADFB034642491846FDF766FD5B
:1034C0000346796A1846FDF7ADFC03461846FDF73A
:1034D0001BF802460B4620462946FCF7B5FE02467D
:1034E0000B4610461946FDF73FFB03463B61B869A2
:1034F000FDF70AF82CA3D3E90023FCF7A7FE024648
:103500000B4614461D46304B1B681846FCF7FCFF63
:1035100002460B4620462946FCF798FE02460B461B
:1035200010461946FDF720FB0346FB60B869FCF71F
:10353000EBFF02460B461CA1D1E90001FCF784FE1B
:1035400002460B4614461D461F4B1B681846FCF7E7
:10355000DBFF02460B4620462946FCF775FE024675
:103560000B4610461946FDF7FFFA0346BB60144BA5
:103570001B78022B06D1154A7B691360144A3B69FC
:10358000136005E0114AFB681360114ABB681360C1
:1035900000BF2837BD46B0BDB81E85EB51B8AE3F61
:1035A0009A9999999999C93F333333333333D33F38
:1035B00088020020000007C3000007431400002019
:1035C000540200200000A0419802002024000020A6
:1035D00020000020000000002DE9F04184B000AF81
:1035E000786039604FF00003BB603B685A683B6805
:1035F0009A603B687A685A603B681A693B685B6806
:1036000019461046FDF70EFC034698463B689E6936
:103610003B685A683B689B6819461046FDF7F8FA04
:10362000034619463046FDF7FDFB03461946404662
:10363000FDF7F0FA0346BB604F49B868FDF790FD0F
:103640000346002B01D04C4B00E0BB68BB604B49EC
:10365000B868FDF7A3FD0346002B01D0474B00E0FF
:10366000BB68BB60B868FCF74FFF3DA3D3E90023FC
:10367000FCF7A2FF02460B46104619460CF0C2F9B1
:1036800002460B4610461946FDF76EFA0346FB60EC
:103690004FF00001F868FDF777FD0346002B1BD0C3
:1036A000F868FCF731FF4FF03332354BFCF7CEFDB5
:1036B00002460B46104619460CF062FA2AA3D3E9DB
:1036C0000023FCF7C1FD02460B4610461946FDF7E4
:1036D0004BFA0346FB6024E0FB6883F00043184686
:1036E000FCF712FF4FF03332254BFCF7AFFD0246DB
:1036F0000B46104619460CF043FA02460B46144698
:1037000083F0004518A3D3E9002320462946FCF79F
:103710009BFD02460B4610461946FDF725FA034667
:10372000FB60F868FCF7F0FE02460B4610461946AF
:103730000CF0AEF90EA3D3E90023FCF73DFF0246DF
:103740000B4610461946FDF70FFA0346FB60FB686F
:1037500018461037BD46BDE8F08100BFAFF30080CA
:1037600005A11E1724DF913FA4651076998F0A40AA
:10377000B81E85EB51B8AE3F000070C20000704229
:103780003333F33F0000000080B584B000AF7860B1
:1037900039604FF00003FB607868FCF7A3FE14A3C8
:1037A000D3E90023FCF708FF02460B4610461946F2
:1037B0000CF028F910A3D3E90023FCF7FDFE024624
:1037C0000B46104619464FF000020D4BFDF71EF850
:1037D00002460B4610461946FDF7C6F90346FB6044
:1037E000084AFB68136000BF1037BD4680BD00BFAC
:1037F00005A11E1724DFA13F343333333333134085
:10380000000038409802002080B500AF904B1B7834
:103810000E2B00F2198101A252F823F0593800084A
:103820006738000887380008A7380008C73800083C
:10383000E738000807390008273900084739000829
:1038400067390008A3390008C9390008053A00089B
:103850002B3A0008453A00087D4B01221A707D4B37
:1038600000221A60F0E07B4B1B6843F2BB4293429C
:1038700001D80123E9E0764B02221A70754B002231
:103880001A600223E1E0734B1B6840F62722934243
:1038900001D80223D9E06E4B03221A706D4B00222F
:1038A0001A600323D1E06B4B1B6842F6234293421C
:1038B00001D80323C9E0664B04221A70654B00222D
:1038C0001A600423C1E0634B1B6840F6B732934291
:1038D00001D80423B9E05E4B05221A705D4B00222B
:1038E0001A600523B1E05B4B1B6846F677129342E2
:1038F00001D80523A9E0564B06221A70554B002229
:103900001A600623A1E0534B1B6840F6272293421E
:1039100001D8062399E04E4B07221A704D4B002226
:103920001A60072391E04B4B1B6842F2E35293422B
:1039300001D8072389E0464B08221A70454B002224
:103940001A60082381E0434B1B6840F6D76293421C
:1039500001D8082379E03E4B09221A703D4B002222
:103960001A60092371E03B4B1B6844F6BB5293423B
:1039700001D8092369E00521374800F06FFC0346B0
:1039800036491846FDF70AFC0346002B01D00923EF
:103990005BE02F4B0A221A702E4B00221A600A237A
:1039A00053E02F4B1B682F491846FDF7F7FB0346E2
:1039B000002B01D00A2348E0254B0B221A70254B1F
:1039C00000221A600B2340E0224B1B6842F20F7268
:1039D000934201D80B2338E005211F4800F03EFC3C
:1039E00003461E491846FDF7D9FB0346002B01D0BC
:1039F0000B232AE0164B0C221A70164B00221A6079
:103A00000C2322E0164B1B6817491846FDF7A8FB4C
:103A10000346002B01D00C2317E00D4B0D221A702A
:103A20000C4B00221A600D230FE00A4B1B6844F276
:103A30006722934201D80D2307E0054B0E221A702E
:103A40000E2302E00E2300E06323184680BD00BF72
:103A5000900200208C020020000000200000A04105
:103A600088020020000070C20000A0C180B500AF35
:103A7000FFF7CAFE03460E2B01D1002300E001230D
:103A8000184680BD80B500AFFFF7BEFE03460E2B83
:103A900001D1002300E00123184680BD80B500AFAE
:103AA000FFF7B2FE0346023B0C2B1FD801A252F8CF
:103AB00023F000BFE93A0008ED3A0008E93A0008AF
:103AC000ED3A0008E93A0008ED3A0008E93A000842
:103AD000ED3A0008E93A0008E93A0008E93A000836
:103AE000ED3A0008E93A0008002300E001231846F7
:103AF00080BD00BF80B483B000AF0346FB710B46AE
:103B0000BB7113467B71FA79BB799A4205D3FA7976
:103B10007B799A4201D301230AE07A79FB799A42B0
:103B200005D37A79BB799A4201D3032300E00223BB
:103B300018460C37BD4680BC7047000080B500AF0A
:103B4000A14B1B78152B00F2E78201A252F823F05B
:103B5000A93B0008C93B0008E53B0008013C000800
:103B6000113C0008993C00080F3D0008813D000809
:103B70001D3E0008433E00080D3F0008333F00088B
:103B8000833F0008A93F0008E53F00080B400008FC
:103B90002B400008474000089D400008BD40000839
:103BA000D940000815410008884B1B6842F22732B3
:103BB000934201D80023B0E2834B01221A70834B59
:103BC00000221A600123A8E2814B1B78012B07D148
:103BD0007D4B02221A707D4B00221A6002239CE268
:103BE00001239AE2794B1B68C72B01D8022394E288
:103BF000754B03221A70754B00221A6003238CE266
:103C0000714B04221A70714B00221A60042384E263
:103C1000704B1B78032B06D0032B3DDC012B15D0FA
:103C2000022B26D038E06C4B1B686C491846FDF718
:103C300097FA0346002B01D004236EE2624B052263
:103C40001A70624B00221A60052366E2624B1B6801
:103C500063491846FDF784FA0346002B01D004237C
:103C60005BE2594B05221A70584B00221A6005235B
:103C700053E2594B1B685B491846FDF771FA03463E
:103C8000002B01D0042348E24F4B05221A704F4B02
:103C900000221A60052340E24E4B1B78032B06D00E
:103CA000032B34DC012B12D0022B20D02FE0474B0A
:103CB0001B6842F68C72934201D805232DE2424BD9
:103CC00006221A70414B00221A60062325E23F4B60
:103CD0001B6844F25152934201D805231DE23A4B2E
:103CE00006221A70394B00221A60062315E2374B60
:103CF0001B6843F2D832934201D805230DE2324BC0
:103D000006221A70314B00221A60062305E2314B5D
:103D10001B78032B06D0032B32DC012B15D0022B92
:103D20001BD02DE02C4B1B682D491846FDF718FAC7
:103D30000346002B01D00623EFE1234B07221A7024
:103D4000224B00221A600723E7E11F4B07221A705B
:103D50001E4B00221A600723DFE11F4B1B6822491C
:103D60001846FDF71BFA0346002B01D00623D4E1C9
:103D7000154B07221A70154B00221A600723CCE15D
:103D8000144B1B78032B06D0032B47DC012B12D0DE
:103D9000022B33D042E00D4B1B6845F603329342B1
:103DA00001D80723B9E1084B08221A70074B0022FB
:103DB0001A600823B1E1054B1B6843F2AF629342DE
:103DC00014D80723A9E100BF910200208C02002033
:103DD0009502002092020020880200200000044288
:103DE00000009C420000F6420000CC429F4B08229B
:103DF0001A709F4B00221A6008238EE19C4B1B68AF
:103E000045F60332934201D8072386E1974B0822F7
:103E10001A70974B00221A6008237EE1954B1B68AD
:103E200095491846FDF7BAF90346002B01D008233F
:103E300073E18E4B09221A708D4B00221A60092300
:103E40006BE18E4B1B78032B06D0032B5EDC012B22
:103E500020D0022B3CD059E0854B1B6842F6DF6234
:103E6000934201D8092358E10521854800F0F6F96D
:103E7000034684491846FDF791F90346002B01D00B
:103E800009234AE1794B0A221A70794B00221A6001
:103E90000A2342E1764B1B6844F61F62934201D825
:103EA00009233AE10521764800F0D8F9034675491F
:103EB0001846FDF773F90346002B01D009232CE1C6
:103EC0006A4B0A221A706A4B00221A600A2324E104
:103ED000674B1B6846F2A712934201D809231CE1E5
:103EE0000521674800F0BAF9034666491846FDF710
:103EF00055F90346002B01D009230EE15B4B0A2242
:103F00001A705B4B00221A600A2306E1594B1B68AA
:103F10005D491846FDF724F90346002B01D00A231A
:103F2000FBE0524B0B221A70514B00221A600B23FC
:103F3000F3E04F4B1B68B3F57A7F01D20B23ECE023
:103F40000321524800F08AF9034651491846FDF70B
:103F500007F90346002B04D0454B00221A600B23BF
:103F6000DBE0434B1B6840F6C312934201D80B239E
:103F7000D3E03E4B0C221A703D4B00221A600C23FA
:103F8000CBE03C4B1B683C491846FDF707F903465C
:103F9000002B01D00C23C0E0344B0D221A70344B9F
:103FA00000221A600D23B8E0314B1B6847F22F52F4
:103FB000934201D80D23B0E00521314800F04EF9BD
:103FC000034630491846FDF7E9F80346002B01D0B7
:103FD0000D23A2E0254B0E221A70254B00221A60F9
:103FE0000E239AE0234B1B6827491846FDF7B8F8C3
:103FF0000346002B01D00E238FE01C4B0F221A70BA
:104000001B4B00221A600F2387E0194B1B6842F6F6
:10401000F722934201D80F237FE0144B10221A702D
:10402000134B00221A60102377E01A4B1B78002BE9
:1040300001D1102371E00D4B11221A700C4B00229C
:104040001A60112369E00B4B1B6813491846FDF7F2
:1040500087F80346002B01D011235EE0034B1222A8
:104060001A70034B00221A60122356E091020020BE
:104070008C020020880200200000404192020020B3
:10408000000000200000A04100009C42140000201D
:104090000000C8429302002000002843204B1B6808
:1040A0004CF24F32934201D8122336E01D4B1322BB
:1040B0001A701B4B00221A6013232EE01A4B1B7838
:1040C000002B01D1132328E0164B14221A70144B35
:1040D00000221A60142320E0114B1B6842F20F7279
:1040E000934201D8142318E00521104800F0B6F8D7
:1040F00003460F491846FDF751F80346002B01D03F
:1041000014230AE0074B15221A70054B00221A608F
:10411000152302E0152300E06323184680BD00BF8D
:104120008C02002091020020940200200000002058
:104130000000A04180B500AFFFF700FD0346013B42
:10414000142B2FD801A252F823F000BFA141000880
:10415000A5410008A5410008A5410008A5410008A7
:10416000A5410008A5410008A5410008A541000897
:10417000A5410008A5410008A5410008A541000887
:10418000A5410008A5410008A1410008A54100087B
:10419000A5410008A1410008A5410008A14100086F
:1041A000002300E00123184680BD00BF80B500AFAA
:1041B000FFF7C4FC0346013B142B2FD801A252F891
:1041C00023F000BF194200081D4200081D420008EC
:1041D0001D4200081D4200081D4200081D42000843
:1041E0001D4200081D4200081D4200081D42000833
:1041F0001D4200081D4200081D4200081D42000823
:10420000194200081D4200081D420008194200081A
:104210001D42000819420008002300E0012318464F
:1042200080BD00BF80B400AF044B1B684FF4FA722E
:10423000DA6300BFBD4680BC704700BFE4040020C5
:1042400080B400AF044B1B684FF47A72DA6300BF8E
:10425000BD4680BC704700BFE404002080B584B038
:1042600000AF78600B46FB704FF00003FB6000234B
:10427000BB600DE0BB689B007A6813441B6819465D
:10428000F868FCF7C7FC0346FB60BB680133BB6002
:10429000FB78BA689A42EDDBFB781846FCF76EFDB6
:1042A00003461946F868FCF771FE034618461037B6
:1042B000BD4680BD80B487B000AFF8600B467A6021
:1042C000FB720023FB750DE0FB7D01339B00FA6858
:1042D0001A44FB7D9B00F9680B4412681A60FB7D51
:1042E0000133FB75FA7DFB7A013B9A42ECDBFB7AEA
:1042F00003F18043013B9B00FA6813447A681A601B
:1043000000BF1C37BD4680BC7047000090B5CBB0E5
:1043100006AF0023C7F8B83007F1BC0338220021EC
:10432000184608F02AFD694B07F1A8040FCB84E872
:104330000F00674A07F1600311464622184608F04D
:104340000EFD07F58873A3F58873624A1846114677
:104350005E231A4608F003FD6423029307230193AA
:1043600007F1B803009301230022D0215A4802F03C
:1043700035FA97F8B8301B09DBB21A4613469B0092
:1043800013445B001A4697F8B83003F00F03134448
:10439000C7F80C3197F8B9301B09DBB21A4613463F
:1043A0009B0013445B001A4697F8B93003F00F03E3
:1043B0001344C7F8083197F8BA305B09DBB203F051
:1043C000010213469B0013449B00194697F8BA302C
:1043D0001B09DBB203F0010213469B0013445B0090
:1043E000CA1897F8BA3003F00F031344C7F8043122
:1043F00097F8BB30C7F8003197F8BC301B09DBB227
:104400001A4613469B0013445B001A4697F8BC30CB
:1044100003F00F031344C7F8FC3097F8BD305B007E
:104420005A1113469B0013445B001A4697F8BD309F
:1044300003F00F031344C7F8F83097F8BE301B0998
:10444000DBB21A4613469B0013445B001A4697F8EA
:10445000BE3003F00F031344C7F8F43007F16001D6
:10446000D7F8002113469B0013445B000B4407F16F
:10447000A80107F1B800D7F80C210592D7F8082158
:104480000492D7F8042103920293D7F8FC300193E9
:10449000D7F8F8300093D7F8F4300A460F4909F0FE
:1044A000E3F907F1B8014FF0FF332D220C4805F076
:1044B000F6F839464FF0FF335D22094805F0EFF872
:1044C00000BF07F58A77BD4690BD00BFD413010831
:1044D000E41301082C14010824030020AC13010884
:1044E000B805002080B483B000AF786000BF0C37FF
:1044F000BD4680BC704780B487B000AFF860B9603B
:104500007A600023FB750023FB7548E0FB7DFA68A9
:1045100013441B78AA2B3FD1FB7D0133FA68134467
:104520001B78BB2B38D1FB7D0233FA6813441B7810
:10453000CC2B31D1FB7D0333FA6813441B78DD2B80
:104540002AD1FB7D0F33FA6813441B78AA2B23D1A1
:10455000FB7D0E33FA6813441B78BB2B1CD1FB7D0B
:104560000D33FA6813441B78CC2B15D1FB7D0C332B
:10457000FA6813441B78DD2B0ED1FB7D0433FA68F7
:1045800013441A68BB681A60FB7D0833FA68134449
:104590001A687B681A6005E0FB7D0133FB75FB7DC3
:1045A000062BB3D91C37BD4680BC704780B584B09C
:1045B00000AF78600023FB607B68244A934219D1E6
:1045C000234B1B78012B08D1224B1B6807F10C02EF
:1045D0001146184607F0F2F929E01D4B1B78022B13
:1045E00025D11D4B1B6807F10C021146184607F038
:1045F000E5F91CE07B68194A934218D1144B1B78EB
:10460000012B08D1164B1B6807F10C021146184606
:1046100007F0D4F90BE00E4B1B78022B07D1114B9E
:104620001B6807F10C021146184607F0C7F9FB6832
:10463000002B07D00C4B4FF080521A60BFF34F8F06
:10464000BFF36F8F00BF1037BD4680BD0C04002044
:1046500054020020AC020020C00200202C050020E3
:10466000B0020020CC02002004ED00E080B58AB04A
:1046700000AF07F1180300221A605A609A60DA60EE
:104680003E4B9B693D4A43F0800393613B4B9B69E2
:1046900003F080037B617B69384B9B69374A43F0A9
:1046A00010039361354B9B6903F010033B613B6939
:1046B000324B9B69314A43F0040393612F4B9B6952
:1046C00003F00403FB60FB682C4B9B692B4A43F00F
:1046D00040039361294B9B6903F04003BB60BB68B7
:1046E000264B9B69254A43F008039361234B9B6942
:1046F00003F008037B607B68204B9B691F4A43F0F3
:10470000200393611D4B9B6903F020033B603B68D2
:1047100000221E211A4801F00AFE00220221194837
:1047200001F005FE0123BB610023FB6102233B6214
:1047300007F118031946124801F04EFC1E23BB6115
:104740000123FB6102233B6202237B6207F1180312
:1047500019460B4801F040FC0223BB610123FB61B9
:1047600000233B6202237B6207F1180319460548C8
:1047700001F032FC00BF2837BD4680BD001002406A
:10478000001C01400010014080B500AF124B134ADD
:104790001A60114B124A5A600F4B00229A600E4B5E
:1047A0000022DA600C4B4FF480421A610A4B00225F
:1047B0005A61094B00229A61074B0022DA61064BCD
:1047C00000221A62044801F0CBFD0346002B01D001
:1047D00000F038F900BF80BDD00200200054004036
:1047E000A086010080B500AF124B134A1A60114B2E
:1047F000124A5A600F4B00229A600E4B0022DA6078
:104800000C4B4FF480421A610A4B00225A61094B4B
:1048100000229A61074B0022DA61064B00221A62DD
:10482000044801F09DFD0346002B01D000F00AF979
:1048300000BF80BD2403002000580040A086010076
:1048400080B58AB000AF786007F1180300221A60C3
:104850005A609A60DA607B681B682B4A934224D1C5
:104860002A4B9B69294A43F008039361274B9B69B4
:1048700003F008037B617B69C023BB611223FB61EA
:1048800003237B6207F118031946214801F0A4FBBA
:104890001E4BDB691D4A43F40013D3611B4BDB69DC
:1048A00003F400133B613B6929E07B681B68194AEC
:1048B000934224D1154B9B69144A43F0080393613A
:1048C000124B9B6903F00803FB60FB684FF44063E5
:1048D000BB611223FB6103237B6207F118031946B6
:1048E0000B4801F079FB094BDB69084A43F480036C
:1048F000D361064BDB6903F48003BB60BB6800BF78
:104900002837BD4680BD00BF005400400010024063
:10491000000C01400058004080B500AF01F002F8E3
:1049200000F021F8FFF7A2FEFFF72EFF00F050FA8B
:1049300000F0A6FA00F07EFB00F0D0FB00F040FC97
:1049400000F07CFE00F0A4FEFFF74CFFFCF756FCE5
:1049500000F016FB00F0C6FE05F0AEF8FCF7DCFC3C
:1049600005F0DCF8FEE780B596B000AF07F1300344
:1049700028220021184608F000FA07F11C03002243
:104980001A605A609A60DA601A613B1D00221A6050
:104990005A609A60DA601A615A6101233B634FF4EE
:1049A00080337B630023BB6301233B640223FB64EE
:1049B0004FF480333B654FF4E0137B6507F1300320
:1049C000184602F0CDFC0346002B01D000F03AF867
:1049D0000F23FB6102233B6200237B624FF4806361
:1049E000BB620023FB6207F11C030221184602F0A0
:1049F00039FF0346002B01D000F024F802237B602E
:104A00004FF40043FB603B1D184603F0F3F80346E8
:104A1000002B01D000F016F800BF5837BD4680BD0E
:104A200080B582B000AF78607B681B68044A93420F
:104A300001D100F08DFF00BF0837BD4680BD00BF2B
:104A40000010004080B400AF72B600BFFEE7000067
:104A500080B582B000AF114B9B69104A43F001034F
:104A600093610E4B9B6903F001037B607B680B4BEA
:104A7000DB690A4A43F08053D361084BDB6903F0DA
:104A800080533B603B6800220F216FF0010001F072
:104A900078FA00BF0837BD4680BD00BF0010024055
:104AA00080B58EB000AF78600023FB620023BB624C
:104AB000002387F83330344BDB69334A43F010036B
:104AC000D361314BDB6903F01003FB60FB6807F136
:104AD000100207F114031146184603F03DF83B6A33
:104AE000FB62FB6A002B03D103F00EF8786304E04D
:104AF00003F00AF803465B007B637B6B234AA2FB4F
:104B000003239B0C013BBB62214B224A1A60204BC2
:104B100040F2E732DA601E4ABB6A53601C4B002247
:104B20001A611B4B00229A60194B00229A611848A7
:104B300003F016F9034687F8333097F83330002B2B
:104B40001BD1134803F0BCF9034687F8333097F8BC
:104B50003330002B11D1362001F02FFA7B680F2B58
:104B600008D800227968362001F00BFA0A4A7B68DF
:104B7000136002E0012387F8333097F8333018468A
:104B80003837BD4680BD00BF0010024083DE1B43A6
:104B900078030020001000402C00002080B400AFFB
:104BA000054B1B68DA68044B1B6822F00102DA60CF
:104BB00000BFBD4680BC70477803002080B400AFC2
:104BC000054B1B68DA68044B1B6842F00102DA608F
:104BD00000BFBD4680BC70477803002080B400AFA2
:104BE000FEE780B400AFFEE780B400AFFEE780B41C
:104BF00000AFFEE780B400AFFEE780B400AF00BFB7
:104C0000BD4680BC7047000080B500AF024803F08D
:104C100055FD00BF80BD00BF0C04002080B500AF73
:104C2000024803F04BFD00BF80BD00BF2C050020F3
:104C300080B500AF024803F041FD00BF80BD00BF5A
:104C40007803002080B400AF01231846BD4680BC25
:104C5000704780B582B000AF7860396007F05CFFC4
:104C6000034616221A604FF0FF3318460837BD4638
:104C700080BD80B582B000AF78604FF0FF317868BA
:104C8000FFF7E7FFFEE780B586B000AFF860B960D8
:104C90007A6000237B610AE0AFF300800146BB68C5
:104CA0005A1CBA60CAB21A707B6901337B617A6997
:104CB0007B689A42F0DB7B6818461837BD4680BD9A
:104CC00080B586B000AFF860B9607A6000237B6180
:104CD00009E0BB685A1CBA601B781846AFF3008025
:104CE0007B6901337B617A697B689A42F1DB7B687F
:104CF00018461837BD4680BD80B483B000AF7860D9
:104D00004FF0FF3318460C37BD4680BC704780B467
:104D100083B000AF786039603B684FF400525A604E
:104D2000002318460C37BD4680BC704780B483B062
:104D300000AF7860012318460C37BD4680BC704731
:104D400080B485B000AFF860B9607A60002318467F
:104D50001437BD4680BC704780B586B000AF786020
:104D6000144A154BD31A7B617B693B61134B1B685B
:104D7000002B02D1114B124A1A60104B1A687B6843
:104D800013443A699A4207D207F0C6FE03460C2242
:104D90001A604FF0FF3309E0084B1B68FB60074BBC
:104DA0001A687B681344054A1360FB681846183775
:104DB000BD4680BD0000012000040000C0030020AB
:104DC0004079002080B400AF00BFBD4680BC704772
:104DD00080B58CB000AF07F10C03242200211846E7
:104DE00007F0CBFF3B1D00221A605A60224B234A7A
:104DF0001A60214B00225A601F4B00229A601E4B02
:104E00004FF6FF72DA601C4B00221A611A4B002227
:104E10005A61194B00229A610323FB6000233B6116
:104E200001237B610023BB610023FB6100233B6204
:104E300001237B620023BB620023FB6207F10C03AA
:104E400019460D4803F00AFB0346002B01D0FFF77B
:104E5000F9FD00237B600023BB603B1D194606481B
:104E600004F052FB0346002B01D0FFF7EBFD00BF1F
:104E70003037BD4680BD00BFC4030020002C014078
:104E800080B58CB000AF07F11C0300221A605A6095
:104E90009A60DA601A6107F10C0300221A605A6006
:104EA0009A60DA603B1D00221A605A60334B4FF063
:104EB00080421A60314B40F2CF225A602F4B0022C1
:104EC0009A602E4B43F69722DA602C4B00221A612F
:104ED0002A4B00229A61294803F05CF90346002B13
:104EE00001D0FFF7AFFD0423FB6150233B62002399
:104EF0007B620023BB620023FB6207F11C0319469F
:104F00001E4803F035FE0346002B01D0FFF79AFD43
:104F10000023FB6001233B6100237B610023BB6115
:104F200007F10C0300221946144803F0CFFC034696
:104F3000002B01D0FFF786FD0223FB6002233B61BB
:104F400007F10C03042219460C4803F0BFFC03468A
:104F5000002B01D0FFF776FD00237B600023BB60B0
:104F60003B1D1946054804F0CFFA0346002B01D03B
:104F7000FFF768FD00BF3037BD4680BD0C04002040
:104F800080B58AB000AF07F1200300221A605A6092
:104F90003B1D00221A605A609A60DA601A615A61F9
:104FA0009A61224B224A1A60204B40F2CF225A606B
:104FB0001E4B00229A601D4B41F28732DA601B4B78
:104FC00000221A61194B00229A61184802F0D8FF9A
:104FD0000346002B01D0FFF735FD00233B62002381
:104FE0007B6207F120031946104804F08DFA03464E
:104FF000002B01D0FFF726FD60237B600223BB60FE
:105000000023FB6000237B613B1D042219460748F7
:1050100003F0F0FC0346002B01D0FFF713FD03481B
:1050200000F0A4FA00BF2837BD4680BD540400201C
:105030000004004080B58CB000AF07F10C032422BF
:105040000021184607F099FE3B1D00221A605A60A5
:10505000204B214A1A601F4B00225A601D4B002230
:105060009A601C4B4FF6FF72DA601A4B00221A61ED
:10507000184B00229A610323FB6000233B6101234C
:105080007B610023BB610023FB6100233B620123A2
:105090007B620023BB620023FB6207F10C0319460D
:1050A0000C4803F0DBF90346002B01D0FFF7CAFCE4
:1050B00000237B600023BB603B1D1946054804F0BC
:1050C00023FA0346002B01D0FFF7BCFC00BF3037AA
:1050D000BD4680BD9C0400200008004080B58AB019
:1050E00000AF07F1200300221A605A603B1D002226
:1050F0001A605A609A60DA601A615A619A612E4B9E
:105100002E4A1A602C4B47225A602B4B00229A6081
:10511000294B44F61F62DA60274B00221A61264BA6
:1051200000229A61244802F02BFF0346002B01D095
:10513000FFF788FC00233B6200237B6207F120031A
:1051400019461D4804F0E0F90346002B01D0FFF793
:1051500079FC60237B600023BB600023FB6000239D
:105160007B613B1D00221946134803F043FC0346B4
:10517000002B01D0FFF766FC3B1D042219460E48A8
:1051800003F038FC0346002B01D0FFF75BFC322311
:10519000BB603B1D08221946074803F02BFC034661
:1051A000002B01D0FFF74EFC034800F0DFF900BFF1
:1051B0002837BD4680BD00BFE4040020000C00403D
:1051C00080B58CB000AF07F11C0300221A605A6052
:1051D0009A60DA601A6107F10C0300221A605A60C3
:1051E0009A60DA603B1D00221A605A60344B354ADF
:1051F0001A60334B40F2CF225A60314B00229A6042
:105200002F4B43F69722DA602D4B00221A612C4B6C
:1052100000225A612A4B00229A61294802F0BAFF03
:105220000346002B01D0FFF70DFC0423FB61502344
:105230003B6200237B620023BB620023FB6207F119
:105240001C0319461E4803F093FC0346002B01D0B3
:10525000FFF7F8FB0023FB6001233B6100237B6128
:105260000023BB6107F10C0300221946144803F028
:105270002DFB0346002B01D0FFF7E4FB0223FB606C
:1052800002233B6107F10C03042219460C4803F08A
:105290001DFB0346002B01D0FFF7D4FB00237B60EE
:1052A0000023BB603B1D1946054804F02DF9034659
:1052B000002B01D0FFF7C6FB00BF3037BD4680BDD5
:1052C0002C0500200034014080B58CB000AF786020
:1052D00007F1180300221A605A609A60DA607B684E
:1052E0001B683B4A934237D13A4B9B69394A43F496
:1052F00000639361374B9B6903F400637B617B69B7
:10530000344B9B69334A43F040039361314B9B69B3
:1053100003F040033B613B694FF42063BB61002312
:10532000FB6100233B6207F1180319462A4800F08D
:1053300053FE2A4B5B68BB62BB6A23F0C003BB62AF
:10534000BB6A43F0E063BB62BB6A43F0C003BB626D
:10535000224ABB6A536037E07B681B68204A93424D
:1053600032D11C4BDB691B4A43F00403D361194B58
:10537000DB6903F00403FB60FB68164B9B69154A6D
:1053800043F020039361134B9B6903F02003BB6040
:10539000BB684FF44053BB610023FB6100233B62B9
:1053A00007F1180319460F4800F016FE0B4B5B6817
:1053B000FB62FB6A43F0E063FB62FB6A43F48053E9
:1053C000FB62064AFB6A536000BF3037BD4680BDB2
:1053D000002C014000100240001801400000014074
:1053E000000800400014014080B58CB000AF786028
:1053F00007F11C0300221A605A609A60DA607B6829
:105400001B68B3F1804F3FD13A4BDB69394A43F017
:105410000103D361374BDB6903F00103BB61BB6957
:10542000344B9B69334A43F004039361314B9B69CE
:1054300003F004037B617B694FF40043FB610023AD
:105440003B6200237B6207F11C0319462A4800F0E7
:10545000C3FD2A4B5B68FB62FB6A23F44073FB626B
:10546000FB6A43F0E063FB62FB6A43F48073FB6218
:10547000224AFB6A5360002205211C2000F081FDB6
:105480001C2000F09AFD30E07B681B681C4A9342A8
:105490002BD1184B9B69174A43F400539361154B6A
:1054A0009B6903F400533B613B69124B9B69114AB2
:1054B00043F0100393610F4B9B6903F01003FB60F3
:1054C000FB684023FB6100233B6200237B6207F102
:1054D0001C0319460B4800F07FFD002205212E20F9
:1054E00000F04FFD2E2000F068FD00BF3037BD46B4
:1054F00080BD00BF001002400008014000000140D4
:10550000003401400010014080B485B000AF7860E5
:105510007B681B68124A93420CD1124BDB69114A1B
:1055200043F00203D3610F4BDB6903F00203FB601E
:10553000FB6810E07B681B680B4A93420BD1094B58
:10554000DB69084A43F00803D361064BDB6903F0CB
:105550000803BB60BB6800BF1437BD4680BC704702
:105560000004004000100240000C004080B58AB0EA
:1055700000AF786007F1140300221A605A609A6045
:10558000DA607B681B68274A93422AD1264B9B69C5
:10559000254A43F008039361234B9B6903F00803FA
:1055A0003B613B6920237B610223BB6102233B6299
:1055B00007F1140319461D4800F00EFD1C4B5B68F3
:1055C0007B627B6A23F440637B627B6A43F0E06327
:1055D0007B627B6A43F400637B62154A7B6A53609B
:1055E0001CE07B681B68134A934217D10E4B9B69E2
:1055F0000D4A43F0040393610B4B9B6903F00403D2
:10560000FB60FB6807237B610223BB6102233B62D3
:1056100007F114031946084800F0DEFC00BF2837E4
:10562000BD4680BD0004004000100240000C014057
:1056300000000140000C00400008014080B500AFB0
:10564000114B124A1A60104B4FF4E1325A600E4B64
:1056500000229A600C4B0022DA600B4B00221A6188
:10566000094B0C225A61084B00229A61064B00221A
:10567000DA61054803F0C6FF0346002B01D0FFF7AF
:10568000E1F900BF80BD00BF74050020004C004060
:1056900080B500AF114B124A1A60104B4FF4E13243
:1056A0005A600E4B00229A600C4B0022DA600B4BC2
:1056B00000221A61094B0C225A61084B00229A61A0
:1056C000064B0022DA61054803F09CFF0346002BDD
:1056D00001D0FFF7B7F900BF80BD00BFB8050020BB
:1056E0000050004080B500AF114B124A1A60104BB9
:1056F0004FF4E1325A600E4B00229A600C4B0022AC
:10570000DA600B4B00221A61094B0C225A61084BDC
:1057100000229A61064B0022DA61054803F072FF0D
:105720000346002B01D0FFF78DF900BF80BD00BFFD
:10573000FC0500200038014080B58EB000AF7860D5
:1057400007F1280300221A605A609A60DA607B68C9
:105750001B685A4A934232D1594BDB69584A43F489
:105760000023D361564BDB6903F400237B627B6A21
:10577000534B9B69524A43F010039361504B9B6912
:1057800003F010033B623B6A4FF48063BB62022369
:10579000FB6203237B6307F128031946494800F0A5
:1057A0001BFC4FF40063BB620023FB6200233B63DE
:1057B00007F128031946434800F00EFC79E07B68A6
:1057C0001B68414A93423DD13D4BDB693C4A43F45F
:1057D0008013D3613A4BDB6903F48013FB61FB69EF
:1057E000374B9B69364A43F010039361344B9B69F6
:1057F00003F01003BB61BB69314B9B69304A43F036
:10580000200393612E4B9B6903F020037B617B692E
:105810004FF48053BB620223FB6203237B6307F1D7
:1058200028031946274800F0D7FB0423BB62002356
:10583000FB6200233B6307F128031946234800F06D
:10584000CBFB36E07B681B68214A934231D11C4B6D
:105850009B691B4A43F480439361194B9B6903F492
:1058600080433B613B69164B9B69154A43F0040337
:105870009361134B9B6903F00403FB60FB684FF4D7
:105880000073BB620223FB6203237B6307F12803DF
:105890001946104800F0A0FB4FF48063BB62002360
:1058A000FB6200233B6307F128031946094800F017
:1058B00093FB00BF3837BD4680BD00BF004C0040A1
:1058C0000010024000100140005000400014014050
:1058D00000380140000801400C480D490D4A0023E2
:1058E00002E0D458C4500433C4188C42F9D30A4A95
:1058F0000A4C002301E013600432A242FBD3FFF7FD
:1059000061FA07F005FAFFF707F87047000000207A
:1059100008020020A81C010808020020407900208D
:10592000FEE7000080B500AF084B1B68074A43F054
:1059300010031360032000F019FB0F20FFF7B0F8ED
:10594000FFF786F80023184680BD00BF0020024004
:1059500080B400AF054B1B781A46054B1B681344F7
:10596000034A136000BFBD4680BC70473000002072
:105970004006002080B400AF024B1B681846BD46AD
:1059800080BC70474006002080B584B000AF7860CE
:10599000FFF7F0FFB8607B68FB60FB68B3F1FF3F87
:1059A00005D00A4B1B781A46FB681344FB6000BF06
:1059B000FFF7E0FF0246BB68D31AFA689A42F7D8AD
:1059C00000BF00BF1037BD4680BD00BF30000020C3
:1059D00080B586B000AF78600023FB7500233B6183
:1059E0000023BB600023FB607B68002B01D10123F7
:1059F000CEE07B689B68002B7B689B6A002B09D1FB
:105A00007B680022DA627B68002283F824207868B1
:105A1000FBF732FC786800F0BDF90346FB757B6844
:105A20009B6A03F01003002B40F0A980FB7D002B44
:105A300040F0A5807B689B6A23F4885323F002031F
:105A400043F002027B689A627B685A687B681B6835
:105A500051498B420AD17B68DB69B3F5402F02D0F4
:105A60007B68DB6904E04FF4002301E07B68DB69BD
:105A70001A437B681B7B5B001343BA681343BB600C
:105A80007B689B68B3F5807F03D07B689B68012BA4
:105A900002D14FF4807300E000233A6913433B6165
:105AA0007B681B7D012B19D17B681B7B002B09D1E7
:105AB0007B689B69013B5A033B69134343F40063D2
:105AC0003B610BE07B689B6A43F020027B689A6233
:105AD0007B68DB6A43F001027B68DA627B681B68E3
